{
  "contractName": "auditor",
  "abi": [
    {
      "inputs": [],
      "payable": false,
      "stateMutability": "nonpayable",
      "type": "constructor"
    },
    {
      "constant": true,
      "inputs": [],
      "name": "numPeople",
      "outputs": [
        {
          "internalType": "uint8",
          "name": "",
          "type": "uint8"
        }
      ],
      "payable": false,
      "stateMutability": "view",
      "type": "function"
    },
    {
      "constant": false,
      "inputs": [
        {
          "internalType": "string",
          "name": "nm",
          "type": "string"
        },
        {
          "internalType": "address",
          "name": "ca",
          "type": "address"
        }
      ],
      "name": "addUser",
      "outputs": [
        {
          "internalType": "uint8",
          "name": "",
          "type": "uint8"
        }
      ],
      "payable": false,
      "stateMutability": "nonpayable",
      "type": "function"
    },
    {
      "constant": true,
      "inputs": [
        {
          "internalType": "uint8",
          "name": "unum",
          "type": "uint8"
        }
      ],
      "name": "getUser",
      "outputs": [
        {
          "internalType": "string",
          "name": "",
          "type": "string"
        },
        {
          "internalType": "uint8",
          "name": "",
          "type": "uint8"
        },
        {
          "internalType": "address",
          "name": "",
          "type": "address"
        }
      ],
      "payable": false,
      "stateMutability": "view",
      "type": "function"
    },
    {
      "constant": true,
      "inputs": [],
      "name": "getNumpeople",
      "outputs": [
        {
          "internalType": "uint8",
          "name": "",
          "type": "uint8"
        }
      ],
      "payable": false,
      "stateMutability": "view",
      "type": "function"
    }
  ],
  "bytecode": "0x608060405234801561001057600080fd5b506000600260006101000a81548160ff021916908360ff1602179055506108898061003c6000396000f3fe608060405234801561001057600080fd5b506004361061004c5760003560e01c8063864a0d0a146100515780639fbf152214610146578063ce8acbad14610230578063ec48188114610254575b600080fd5b61012a6004803603604081101561006757600080fd5b810190808035906020019064010000000081111561008457600080fd5b82018360208201111561009657600080fd5b803590602001918460018302840111640100000000831117156100b857600080fd5b91908080601f016020809104026020016040519081016040528093929190818152602001838380828437600081840152601f19601f820116905080830192505050505050509192919290803573ffffffffffffffffffffffffffffffffffffffff169060200190929190505050610278565b604051808260ff1660ff16815260200191505060405180910390f35b6101756004803603602081101561015c57600080fd5b81019080803560ff1690602001909291905050506104ad565b60405180806020018460ff1660ff1681526020018373ffffffffffffffffffffffffffffffffffffffff1673ffffffffffffffffffffffffffffffffffffffff168152602001828103825285818151815260200191508051906020019080838360005b838110156101f35780820151818401526020810190506101d8565b50505050905090810190601f1680156102205780820380516001836020036101000a031916815260200191505b5094505050505060405180910390f35b610238610742565b604051808260ff1660ff16815260200191505060405180910390f35b61025c610755565b604051808260ff1660ff16815260200191505060405180910390f35b60008015156000803373ffffffffffffffffffffffffffffffffffffffff1673ffffffffffffffffffffffffffffffffffffffff16815260200190815260200160002060010160159054906101000a900460ff16151514156102dd57600090506104a7565b6040518060800160405280848152602001600260009054906101000a900460ff1660ff1681526020018373ffffffffffffffffffffffffffffffffffffffff168152602001600115158152506000803373ffffffffffffffffffffffffffffffffffffffff1673ffffffffffffffffffffffffffffffffffffffff168152602001908152602001600020600082015181600001908051906020019061038392919061076c565b5060208201518160010160006101000a81548160ff021916908360ff16021790555060408201518160010160016101000a81548173ffffffffffffffffffffffffffffffffffffffff021916908373ffffffffffffffffffffffffffffffffffffffff16021790555060608201518160010160156101000a81548160ff02191690831515021790555090505060013390806001815401808255809150509060018203906000526020600020016000909192909190916101000a81548173ffffffffffffffffffffffffffffffffffffffff021916908373ffffffffffffffffffffffffffffffffffffffff160217905550506001600260009054906101000a900460ff1601600260006101000a81548160ff021916908360ff160217905550600190505b92915050565b6060600080600260009054906101000a900460ff1660ff168460ff16106104d357600080fd5b60008060018660ff16815481106104e657fe5b9060005260206000200160009054906101000a900473ffffffffffffffffffffffffffffffffffffffff1673ffffffffffffffffffffffffffffffffffffffff1673ffffffffffffffffffffffffffffffffffffffff16815260200190815260200160002060010160159054906101000a900460ff1661056557600080fd5b61056d6107ec565b60008060018760ff168154811061058057fe5b9060005260206000200160009054906101000a900473ffffffffffffffffffffffffffffffffffffffff1673ffffffffffffffffffffffffffffffffffffffff1673ffffffffffffffffffffffffffffffffffffffff168152602001908152602001600020604051806080016040529081600082018054600181600116156101000203166002900480601f0160208091040260200160405190810160405280929190818152602001828054600181600116156101000203166002900480156106895780601f1061065e57610100808354040283529160200191610689565b820191906000526020600020905b81548152906001019060200180831161066c57829003601f168201915b505050505081526020016001820160009054906101000a900460ff1660ff1660ff1681526020016001820160019054906101000a900473ffffffffffffffffffffffffffffffffffffffff1673ffffffffffffffffffffffffffffffffffffffff1673ffffffffffffffffffffffffffffffffffffffff1681526020016001820160159054906101000a900460ff1615151515815250509050806000015181602001518260400151829250935093509350509193909250565b600260009054906101000a900460ff1681565b6000600260009054906101000a900460ff16905090565b828054600181600116156101000203166002900490600052602060002090601f016020900481019282601f106107ad57805160ff19168380011785556107db565b828001600101855582156107db579182015b828111156107da5782518255916020019190600101906107bf565b5b5090506107e8919061082f565b5090565b604051806080016040528060608152602001600060ff168152602001600073ffffffffffffffffffffffffffffffffffffffff1681526020016000151581525090565b61085191905b8082111561084d576000816000905550600101610835565b5090565b9056fea265627a7a7231582017d72d393f2650f13912f9b13f6a518130b77fbea4e9e29e21d60ab59bc7e50b64736f6c63430005100032",
  "source": "pragma solidity >=0.4.0 <0.7.0;\r\n\r\ncontract auditor{\r\n    struct point{\r\n        string name;\r\n        uint8 uid;\r\n        address contractAddress;\r\n        bool isValue;\r\n    }\r\n    \r\n    mapping (address => point) user_map;\r\n    address[] users;\r\n    \r\n    uint8 public numPeople;\r\n    \r\n    constructor() public{\r\n        numPeople=0;\r\n    }\r\n    \r\n    function addUser(string memory nm, address ca) public returns(uint8){\r\n        if(user_map[msg.sender].isValue == false){\r\n            return 0;\r\n        }\r\n        user_map[msg.sender] = point(nm, numPeople, ca, true);\r\n        users.push(msg.sender);\r\n        numPeople = numPeople + 1;\r\n        return 1;\r\n    }\r\n    \r\n    function getUser(uint8 unum) public view returns(string memory, uint8, address){\r\n        require(unum < numPeople);\r\n        require(user_map[users[unum]].isValue);\r\n        point memory p = user_map[users[unum]];\r\n        return(p.name, p.uid, p.contractAddress);\r\n    }\r\n    \r\n    function getNumpeople() public view returns(uint8){\r\n        return numPeople;\r\n    }\r\n}",
  "sourcePath": "G:\\Blockchain\\DataShare\\contracts\\Auditor.sol",
  "compiler": {
    "name": "solc",
    "version": "0.5.16+commit.9c3226ce.Emscripten.clang"
  },
  "schemaVersion": "3.0.23",
  "updatedAt": "2020-02-11T19:37:14.357Z",
  "devdoc": {
    "methods": {}
  },
  "userdoc": {
    "methods": {}
  }
}