{
  "contractName": "User",
  "abi": [
    {
      "inputs": [
        {
          "internalType": "address",
          "name": "oadd",
          "type": "address"
        },
        {
          "internalType": "string",
          "name": "n",
          "type": "string"
        },
        {
          "internalType": "uint8",
          "name": "u",
          "type": "uint8"
        },
        {
          "internalType": "bytes32",
          "name": "ihash",
          "type": "bytes32"
        }
      ],
      "payable": false,
      "stateMutability": "nonpayable",
      "type": "constructor"
    },
    {
      "constant": true,
      "inputs": [],
      "name": "getUploadedFileNums",
      "outputs": [
        {
          "internalType": "uint8",
          "name": "",
          "type": "uint8"
        }
      ],
      "payable": false,
      "stateMutability": "view",
      "type": "function"
    },
    {
      "constant": true,
      "inputs": [],
      "name": "getDownloadedFileNums",
      "outputs": [
        {
          "internalType": "uint8",
          "name": "",
          "type": "uint8"
        }
      ],
      "payable": false,
      "stateMutability": "view",
      "type": "function"
    },
    {
      "constant": true,
      "inputs": [
        {
          "internalType": "uint8",
          "name": "index",
          "type": "uint8"
        }
      ],
      "name": "getUploadedFile",
      "outputs": [
        {
          "internalType": "bytes32",
          "name": "",
          "type": "bytes32"
        },
        {
          "internalType": "string",
          "name": "",
          "type": "string"
        },
        {
          "internalType": "uint8",
          "name": "",
          "type": "uint8"
        },
        {
          "internalType": "uint16",
          "name": "",
          "type": "uint16"
        }
      ],
      "payable": false,
      "stateMutability": "view",
      "type": "function"
    },
    {
      "constant": true,
      "inputs": [
        {
          "internalType": "uint8",
          "name": "index",
          "type": "uint8"
        }
      ],
      "name": "getDownloadedFiles",
      "outputs": [
        {
          "internalType": "bytes32",
          "name": "",
          "type": "bytes32"
        },
        {
          "internalType": "string",
          "name": "",
          "type": "string"
        },
        {
          "internalType": "uint8",
          "name": "",
          "type": "uint8"
        },
        {
          "internalType": "uint16",
          "name": "",
          "type": "uint16"
        }
      ],
      "payable": false,
      "stateMutability": "view",
      "type": "function"
    },
    {
      "constant": false,
      "inputs": [
        {
          "internalType": "bytes32",
          "name": "iphash",
          "type": "bytes32"
        },
        {
          "internalType": "string",
          "name": "desc",
          "type": "string"
        },
        {
          "internalType": "uint8",
          "name": "ownerID",
          "type": "uint8"
        },
        {
          "internalType": "uint16",
          "name": "price",
          "type": "uint16"
        }
      ],
      "name": "uploadFile",
      "outputs": [
        {
          "internalType": "bool",
          "name": "",
          "type": "bool"
        }
      ],
      "payable": false,
      "stateMutability": "nonpayable",
      "type": "function"
    },
    {
      "constant": false,
      "inputs": [
        {
          "internalType": "uint8",
          "name": "num",
          "type": "uint8"
        },
        {
          "internalType": "uint16",
          "name": "new_price",
          "type": "uint16"
        }
      ],
      "name": "updatePrice",
      "outputs": [],
      "payable": false,
      "stateMutability": "nonpayable",
      "type": "function"
    }
  ],
  "bytecode": "0x608060405234801561001057600080fd5b50604051610c9f380380610c9f8339818101604052608081101561003357600080fd5b81019080805190602001909291908051604051939291908464010000000082111561005d57600080fd5b8382019150602082018581111561007357600080fd5b825186600182028301116401000000008211171561009057600080fd5b8083526020830192505050908051906020019080838360005b838110156100c45780820151818401526020810190506100a9565b50505050905090810190601f1680156100f15780820380516001836020036101000a031916815260200191505b506040526020018051906020019092919080519060200190929190505050836000806101000a81548173ffffffffffffffffffffffffffffffffffffffff021916908373ffffffffffffffffffffffffffffffffffffffff16021790555082600190805190602001906101659291906101c9565b5081600260006101000a81548160ff021916908360ff160217905550806003819055506000600560006101000a81548160ff021916908360ff1602179055506000600760006101000a81548160ff021916908360ff1602179055505050505061026e565b828054600181600116156101000203166002900490600052602060002090601f016020900481019282601f1061020a57805160ff1916838001178555610238565b82800160010185558215610238579182015b8281111561023757825182559160200191906001019061021c565b5b5090506102459190610249565b5090565b61026b91905b8082111561026757600081600090555060010161024f565b5090565b90565b610a228061027d6000396000f3fe608060405234801561001057600080fd5b50600436106100625760003560e01c8063279883f0146100675780632ef340a31461008b578063340a4af614610158578063a740785f1461017c578063c4a54e6c14610249578063dcd958d514610288575b600080fd5b61006f610380565b604051808260ff1660ff16815260200191505060405180910390f35b6100ba600480360360208110156100a157600080fd5b81019080803560ff1690602001909291905050506103f0565b60405180858152602001806020018460ff1660ff1681526020018361ffff1661ffff168152602001828103825285818151815260200191508051906020019080838360005b8381101561011a5780820151818401526020810190506100ff565b50505050905090810190601f1680156101475780820380516001836020036101000a031916815260200191505b509550505050505060405180910390f35b61016061055b565b604051808260ff1660ff16815260200191505060405180910390f35b6101ab6004803603602081101561019257600080fd5b81019080803560ff169060200190929190505050610572565b60405180858152602001806020018460ff1660ff1681526020018361ffff1661ffff168152602001828103825285818151815260200191508051906020019080838360005b8381101561020b5780820151818401526020810190506101f0565b50505050905090810190601f1680156102385780820380516001836020036101000a031916815260200191505b509550505050505060405180910390f35b6102866004803603604081101561025f57600080fd5b81019080803560ff169060200190929190803561ffff169060200190929190505050610736565b005b6103666004803603608081101561029e57600080fd5b8101908080359060200190929190803590602001906401000000008111156102c557600080fd5b8201836020820111156102d757600080fd5b803590602001918460018302840111640100000000831117156102f957600080fd5b91908080601f016020809104026020016040519081016040528093929190818152602001838380828437600081840152601f19601f820116905080830192505050505050509192919290803560ff169060200190929190803561ffff1690602001909291905050506107f0565b604051808215151515815260200191505060405180910390f35b60008060009054906101000a900473ffffffffffffffffffffffffffffffffffffffff1673ffffffffffffffffffffffffffffffffffffffff163373ffffffffffffffffffffffffffffffffffffffff16146103db57600080fd5b600760009054906101000a900460ff16905090565b60006060600080600560009054906101000a900460ff1660ff168560ff161061041857600080fd5b610420610916565b60048660ff168154811061043057fe5b906000526020600020906003020160405180608001604052908160008201548152602001600182018054600181600116156101000203166002900480601f0160208091040260200160405190810160405280929190818152602001828054600181600116156101000203166002900480156104ec5780601f106104c1576101008083540402835291602001916104ec565b820191906000526020600020905b8154815290600101906020018083116104cf57829003601f168201915b505050505081526020016002820160009054906101000a900460ff1660ff1660ff1681526020016002820160019054906101000a900461ffff1661ffff1661ffff1681525050905080600001518160200151826040015183606001518292509450945094509450509193509193565b6000600560009054906101000a900460ff16905090565b60006060600080600760009054906101000a900460ff1660ff168560ff161061059a57600080fd5b6000809054906101000a900473ffffffffffffffffffffffffffffffffffffffff1673ffffffffffffffffffffffffffffffffffffffff163373ffffffffffffffffffffffffffffffffffffffff16146105f357600080fd5b6105fb610916565b60068660ff168154811061060b57fe5b906000526020600020906003020160405180608001604052908160008201548152602001600182018054600181600116156101000203166002900480601f0160208091040260200160405190810160405280929190818152602001828054600181600116156101000203166002900480156106c75780601f1061069c576101008083540402835291602001916106c7565b820191906000526020600020905b8154815290600101906020018083116106aa57829003601f168201915b505050505081526020016002820160009054906101000a900460ff1660ff1660ff1681526020016002820160019054906101000a900461ffff1661ffff1661ffff1681525050905080600001518160200151826040015183606001518292509450945094509450509193509193565b6000809054906101000a900473ffffffffffffffffffffffffffffffffffffffff1673ffffffffffffffffffffffffffffffffffffffff163373ffffffffffffffffffffffffffffffffffffffff161461078f57600080fd5b600560009054906101000a900460ff1660ff168260ff16106107b057600080fd5b8060048360ff16815481106107c157fe5b906000526020600020906003020160020160016101000a81548161ffff021916908361ffff1602179055505050565b60008060009054906101000a900473ffffffffffffffffffffffffffffffffffffffff1673ffffffffffffffffffffffffffffffffffffffff163373ffffffffffffffffffffffffffffffffffffffff161461084b57600080fd5b600460405180608001604052808781526020018681526020018560ff1681526020018461ffff16815250908060018154018082558091505090600182039060005260206000209060030201600090919290919091506000820151816000015560208201518160010190805190602001906108c6929190610948565b5060408201518160020160006101000a81548160ff021916908360ff16021790555060608201518160020160016101000a81548161ffff021916908361ffff160217905550505050949350505050565b60405180608001604052806000801916815260200160608152602001600060ff168152602001600061ffff1681525090565b828054600181600116156101000203166002900490600052602060002090601f016020900481019282601f1061098957805160ff19168380011785556109b7565b828001600101855582156109b7579182015b828111156109b657825182559160200191906001019061099b565b5b5090506109c491906109c8565b5090565b6109ea91905b808211156109e65760008160009055506001016109ce565b5090565b9056fea265627a7a7231582096eb5054721045c191e98cfc043070ec73670acbe19ba01a71306cae2ef2771364736f6c63430005100032",
  "source": "pragma solidity >=0.4.0 <0.7.0;\r\n\r\ncontract User{\r\n    address owner;\r\n    string name;\r\n    uint8 uid;\r\n    bytes32 image;\r\n    \r\n    struct file{\r\n        bytes32 ipfshash;\r\n        string desc;\r\n        uint8 owner;\r\n        uint16 price;\r\n    }\r\n    \r\n    file[] uploaded;\r\n    uint8 numUploaded;\r\n    file[] downloaded;\r\n    uint8 numDownloaded;\r\n    \r\n    constructor(address oadd, string memory n, uint8 u, bytes32 ihash) public{\r\n        owner = oadd;\r\n        name = n;\r\n        uid = u;\r\n        image = ihash;\r\n        numUploaded=0;\r\n        numDownloaded=0;\r\n    }\r\n    \r\n    function getUploadedFileNums() public view returns(uint8){\r\n        return numUploaded;\r\n    }\r\n    \r\n    function getDownloadedFileNums() public view returns(uint8){\r\n        require(msg.sender==owner);\r\n        return numDownloaded; \r\n    }\r\n    \r\n    function getUploadedFile(uint8 index) public view returns(bytes32, string memory, uint8, uint16){\r\n        require(index < numUploaded);\r\n        file memory fl = uploaded[index];\r\n        return (fl.ipfshash, fl.desc, fl.owner, fl.price);\r\n    }\r\n    \r\n    function getDownloadedFiles(uint8 index) public view returns(bytes32, string memory, uint8, uint16) {\r\n        require(index < numDownloaded);\r\n        require(msg.sender==owner);\r\n        file memory fl = downloaded[index];\r\n        return(fl.ipfshash, fl.desc, fl.owner, fl.price);\r\n    }\r\n    \r\n    function uploadFile(bytes32 iphash, string memory desc, uint8 ownerID, uint16 price) public returns(bool) {\r\n        require(msg.sender==owner);\r\n        uploaded.push(file(iphash, desc, ownerID, price));\r\n    }\r\n    \r\n    function updatePrice(uint8 num, uint16 new_price) public{\r\n        require(msg.sender==owner);\r\n        require(num < numUploaded);\r\n        uploaded[num].price = new_price;\r\n    }\r\n    \r\n}",
  "sourcePath": "G:\\Blockchain\\DataShare\\contracts\\User.sol",
  "compiler": {
    "name": "solc",
    "version": "0.5.16+commit.9c3226ce.Emscripten.clang"
  },
  "schemaVersion": "3.0.23",
  "updatedAt": "2020-02-11T19:37:14.372Z",
  "devdoc": {
    "methods": {}
  },
  "userdoc": {
    "methods": {}
  }
}